{
  "contractName": "Submission",
  "abi": [
    {
      "constant": true,
      "inputs": [
        {
          "name": "",
          "type": "uint256"
        }
      ],
      "name": "crops",
      "outputs": [
        {
          "name": "name",
          "type": "string"
        },
        {
          "name": "quantity",
          "type": "uint256"
        },
        {
          "name": "quality",
          "type": "uint256"
        },
        {
          "name": "dateOfSubmission",
          "type": "uint256"
        }
      ],
      "payable": false,
      "stateMutability": "view",
      "type": "function"
    },
    {
      "constant": true,
      "inputs": [
        {
          "name": "",
          "type": "uint256"
        }
      ],
      "name": "cropToOwner",
      "outputs": [
        {
          "name": "",
          "type": "address"
        }
      ],
      "payable": false,
      "stateMutability": "view",
      "type": "function"
    },
    {
      "inputs": [],
      "payable": false,
      "stateMutability": "nonpayable",
      "type": "constructor"
    },
    {
      "anonymous": false,
      "inputs": [
        {
          "indexed": false,
          "name": "name",
          "type": "string"
        },
        {
          "indexed": false,
          "name": "quantity",
          "type": "uint256"
        },
        {
          "indexed": false,
          "name": "quality",
          "type": "uint256"
        },
        {
          "indexed": false,
          "name": "dateOfHarvest",
          "type": "uint256"
        },
        {
          "indexed": false,
          "name": "cropId",
          "type": "uint256"
        }
      ],
      "name": "cropSubmitted",
      "type": "event"
    },
    {
      "constant": false,
      "inputs": [
        {
          "name": "_name",
          "type": "string"
        },
        {
          "name": "_quantity",
          "type": "uint256"
        },
        {
          "name": "_quality",
          "type": "uint256"
        }
      ],
      "name": "_cropSubmission",
      "outputs": [],
      "payable": false,
      "stateMutability": "nonpayable",
      "type": "function"
    }
  ],
  "bytecode": "0x608060405234801561001057600080fd5b506100596040518060400160405280600581526020017f6d616e676f000000000000000000000000000000000000000000000000000000815250600c602361005e60201b60201c565b610288565b6040805160808101825284815260208082018590529181018390524260608201819052600080546001810180835582805284518051949693959194919360049093027f290decd9548b62a8d60345a988386fc84ba6bc95484008f6362f93160ef3e56301926100d2928492909101906101ed565b5060208201518160010155604082015181600201556060820151816003015550509050336001600083815260200190815260200160002060006101000a8154816001600160a01b0302191690836001600160a01b031602179055507f90b11d0446012a8dd9ba0e296c507aaf7959fb47f1d8e4b3e9b58019fb8e308785858585856040518080602001868152602001858152602001848152602001838152602001828103825287818151815260200191508051906020019080838360005b838110156101a8578181015183820152602001610190565b50505050905090810190601f1680156101d55780820380516001836020036101000a031916815260200191505b50965050505050505060405180910390a15050505050565b828054600181600116156101000203166002900490600052602060002090601f016020900481019282601f1061022e57805160ff191683800117855561025b565b8280016001018555821561025b579182015b8281111561025b578251825591602001919060010190610240565b5061026792915061026b565b5090565b61028591905b808211156102675760008155600101610271565b90565b610509806102976000396000f3fe608060405234801561001057600080fd5b50600436106100415760003560e01c806370c9f1a5146100465780639cd9c397146100f0578063ab15dfc414610129575b600080fd5b6100636004803603602081101561005c57600080fd5b50356101d6565b6040518080602001858152602001848152602001838152602001828103825286818151815260200191508051906020019080838360005b838110156100b257818101518382015260200161009a565b50505050905090810190601f1680156100df5780820380516001836020036101000a031916815260200191505b509550505050505060405180910390f35b61010d6004803603602081101561010657600080fd5b5035610298565b604080516001600160a01b039092168252519081900360200190f35b6101d46004803603606081101561013f57600080fd5b81019060208101813564010000000081111561015a57600080fd5b82018360208201111561016c57600080fd5b8035906020019184600183028401116401000000008311171561018e57600080fd5b91908080601f01602080910402602001604051908101604052809392919081815260200183838082843760009201919091525092955050823593505050602001356102b3565b005b600081815481106101e357fe5b60009182526020918290206004919091020180546040805160026001841615610100026000190190931692909204601f81018590048502830185019091528082529193509183919083018282801561027c5780601f106102515761010080835404028352916020019161027c565b820191906000526020600020905b81548152906001019060200180831161025f57829003601f168201915b5050505050908060010154908060020154908060030154905084565b6001602052600090815260409020546001600160a01b031681565b6040805160808101825284815260208082018590529181018390524260608201819052600080546001810180835582805284518051949693959194919360049093027f290decd9548b62a8d60345a988386fc84ba6bc95484008f6362f93160ef3e563019261032792849290910190610442565b5060208201518160010155604082015181600201556060820151816003015550509050336001600083815260200190815260200160002060006101000a8154816001600160a01b0302191690836001600160a01b031602179055507f90b11d0446012a8dd9ba0e296c507aaf7959fb47f1d8e4b3e9b58019fb8e308785858585856040518080602001868152602001858152602001848152602001838152602001828103825287818151815260200191508051906020019080838360005b838110156103fd5781810151838201526020016103e5565b50505050905090810190601f16801561042a5780820380516001836020036101000a031916815260200191505b50965050505050505060405180910390a15050505050565b828054600181600116156101000203166002900490600052602060002090601f016020900481019282601f1061048357805160ff19168380011785556104b0565b828001600101855582156104b0579182015b828111156104b0578251825591602001919060010190610495565b506104bc9291506104c0565b5090565b6104da91905b808211156104bc57600081556001016104c6565b9056fea165627a7a723058204d3e8b77a6067fa31cda218e23a68577e54f6c09f6c38e7e6b1cb314bf4bb9f40029",
  "source": "pragma solidity ^0.5.0;\n\n/**\n * The submission contract accepts farmer input and displays their details\n */\ncontract Submission {\n  constructor() public {\n    _cropSubmission(\"mango\", 12, 35);\n  }\n\n  event cropSubmitted(string name, uint quantity, uint quality, uint dateOfHarvest, uint cropId);\n\n  struct Crop {\n  \tstring name;\n  \tuint quantity;\n  \tuint quality;\n  \tuint dateOfSubmission;\n  }\n\n  Crop[] public crops;\n\n  mapping (uint => address) public cropToOwner;\n  \n  function _cropSubmission(string memory _name, uint _quantity, uint _quality) public {\n    uint _dateOfHarvest = now;\n  \tuint id = crops.push(Crop(_name, _quantity, _quality, _dateOfHarvest));\n  \tcropToOwner[id] = msg.sender;\n  \t//notify created crop\n  \temit cropSubmitted(_name, _quantity, _quality, _dateOfHarvest, id);\n  }\n\n}\n\n",
  "sourcePath": "/home/newville/Documents/Project/SupplyChain/contracts/Submission.sol",
  "compiler": {
    "name": "solc",
    "version": "0.5.8+commit.23d335f2.Emscripten.clang"
  },
  "schemaVersion": "3.0.17",
  "updatedAt": "2020-03-04T13:46:14.714Z",
  "networkType": "ethereum",
  "devdoc": {
    "methods": {}
  },
  "userdoc": {
    "methods": {},
    "notice": "The submission contract accepts farmer input and displays their details"
  }
}